{
  "contractName": "Election",
  "abi": [
    {
      "constant": true,
      "inputs": [],
      "name": "candidatesCount",
      "outputs": [
        {
          "name": "",
          "type": "uint256"
        }
      ],
      "payable": false,
      "stateMutability": "view",
      "type": "function"
    },
    {
      "constant": true,
      "inputs": [
        {
          "name": "",
          "type": "uint256"
        }
      ],
      "name": "candidates",
      "outputs": [
        {
          "name": "id",
          "type": "uint256"
        },
        {
          "name": "name",
          "type": "string"
        },
        {
          "name": "voteCount",
          "type": "uint256"
        }
      ],
      "payable": false,
      "stateMutability": "view",
      "type": "function"
    },
    {
      "constant": true,
      "inputs": [
        {
          "name": "",
          "type": "address"
        }
      ],
      "name": "voters",
      "outputs": [
        {
          "name": "",
          "type": "bool"
        }
      ],
      "payable": false,
      "stateMutability": "view",
      "type": "function"
    },
    {
      "inputs": [],
      "payable": false,
      "stateMutability": "nonpayable",
      "type": "constructor"
    },
    {
      "constant": false,
      "inputs": [
        {
          "name": "_candidateId",
          "type": "uint256"
        }
      ],
      "name": "vote",
      "outputs": [],
      "payable": false,
      "stateMutability": "nonpayable",
      "type": "function"
    }
  ],
  "bytecode": "0x6060604052341561000f57600080fd5b6100606040805190810160405280600b81526020017f4b616d616c48616173616e0000000000000000000000000000000000000000008152506100b66401000000000261030f176401000000009004565b6100b16040805190810160405280600a81526020017f52616a6e694b616e7468000000000000000000000000000000000000000000008152506100b66401000000000261030f176401000000009004565b6101d8565b60026000815480929190600101919050555060606040519081016040528060025481526020018281526020016000815250600160006002548152602001908152602001600020600082015181600001556020820151816001019080519060200190610122929190610133565b506040820151816002015590505050565b828054600181600116156101000203166002900490600052602060002090601f016020900481019282601f1061017457805160ff19168380011785556101a2565b828001600101855582156101a2579182015b828111156101a1578251825591602001919060010190610186565b5b5090506101af91906101b3565b5090565b6101d591905b808211156101d15760008160009055506001016101b9565b5090565b90565b61045d806101e76000396000f300606060405260043610610062576000357c0100000000000000000000000000000000000000000000000000000000900463ffffffff1680630121b93f146100675780632d35a8a21461008a5780633477ee2e146100b3578063a3ec138d1461017a575b600080fd5b341561007257600080fd5b61008860048080359060200190919050506101cb565b005b341561009557600080fd5b61009d6102c0565b6040518082815260200191505060405180910390f35b34156100be57600080fd5b6100d460048080359060200190919050506102c6565b60405180848152602001806020018381526020018281038252848181546001816001161561010002031660029004815260200191508054600181600116156101000203166002900480156101695780601f1061013e57610100808354040283529160200191610169565b820191906000526020600020905b81548152906001019060200180831161014c57829003601f168201915b505094505050505060405180910390f35b341561018557600080fd5b6101b1600480803573ffffffffffffffffffffffffffffffffffffffff169060200190919050506102ef565b604051808215151515815260200191505060405180910390f35b6000803373ffffffffffffffffffffffffffffffffffffffff1673ffffffffffffffffffffffffffffffffffffffff16815260200190815260200160002060009054906101000a900460ff1615151561022357600080fd5b60008111801561023557506002548111155b151561024057600080fd5b60016000803373ffffffffffffffffffffffffffffffffffffffff1673ffffffffffffffffffffffffffffffffffffffff16815260200190815260200160002060006101000a81548160ff021916908315150217905550600160008281526020019081526020016000206002016000815480929190600101919050555050565b60025481565b600160205280600052604060002060009150905080600001549080600101908060020154905083565b60006020528060005260406000206000915054906101000a900460ff1681565b6002600081548092919060010191905055506060604051908101604052806002548152602001828152602001600081525060016000600254815260200190815260200160002060008201518160000155602082015181600101908051906020019061037b92919061038c565b506040820151816002015590505050565b828054600181600116156101000203166002900490600052602060002090601f016020900481019282601f106103cd57805160ff19168380011785556103fb565b828001600101855582156103fb579182015b828111156103fa5782518255916020019190600101906103df565b5b509050610408919061040c565b5090565b61042e91905b8082111561042a576000816000905550600101610412565b5090565b905600a165627a7a723058204a162ea85dec2e8a5026788977d803c7b38750186e8cfe955fc96fdafab88bc60029",
  "source": "pragma solidity ^0.4.2;\n\n\n/**\n * The contractName contract does this and that...\n */\ncontract Election {\n\t// Model a candidate\n\tstruct Candidate{\n\t\tuint id;\n\t\tstring name;\n\t\tuint voteCount;\n\t}\n\t// store accounts that have voted\n\tmapping(address => bool) public voters;\n\t// Store a candidate\n\t//Fetch Candidate\n\tmapping(uint => Candidate) public candidates;\n\t\n\t// Store candidate count \n\tuint public candidatesCount;\n\n\t//constructor\n\tfunction Election () public {\n\t\taddCandidate(\"KamalHaasan\");\n\t\taddCandidate(\"RajniKanth\");\n\t}\t\n\n\tfunction addCandidate (string _name) private {\n\t\tcandidatesCount ++;\n\t\tcandidates[candidatesCount] = Candidate(candidatesCount, _name, 0);\n\t}\n\n\tfunction vote(uint _candidateId) public {\n\t\t// require that the voter hasn't voted before\n\t\trequire (!voters[msg.sender]);\n\n\n\t\t// require a valid candidate\n\t\trequire (_candidateId > 0 && _candidateId <= candidatesCount);\n\n\t\t//record  that voter has voted\n\t\tvoters[msg.sender] = true;\n\n\t\t// update candiadte voteCount\n\t\tcandidates[_candidateId].voteCount ++;\n\t\t}\n}\n\n",
  "sourcePath": "/Users/Sam/Desktop/Dapp/election/contracts/Election.sol",
  "compiler": {
    "name": "solc",
    "version": "0.4.19+commit.c4cbbb05.Emscripten.clang"
  },
  "schemaVersion": "2.0.0",
  "updatedAt": "2018-03-08T18:59:54.023Z"
}